S00F0000697271746573742E7372656309
S315000000004819FE1F8D2F0000452A0000892F000089
S31500000010892F0000892F0000892F000000000000B2
S31500000020000000000000000000000000892F000012
S31500000030892F000000000000892F0000892F000092
S31500000040290F0000FFFFFFFFFFFFFFFFFFFFFFFF7E
S31500000050FFFFFFFFFFFFFFFFFFFFFFFFFFFFFFFFAA
S31500000060FFFFFFFFFFFFFFFFFFFFFFFFFFFFFFFF9A
S31500000070FFFFFFFFFFFFFFFFFFFFFFFFFFFFFFFF8A
S31500000080FFFFFFFFFFFFFFFFFFFFFFFFFFFFFFFF7A
S31500000400FFFFFFFFFFFDFFFFFFFFFFFFFFFFFFFFF8
S31500000410FFFFFFFFFFFFFFFFFFFFFFFFFFFFFFFFE6
S31500000420FFFFFFFFFFFFFFFFFFFFFFFFFFFFFFFFD6
S31500000430FFFFFFFFFFFFFFFFFFFFFFFFFFFFFFFFC6
S31500000440FFFFFFFFFFFFFFFFFFFFFFFFFFFFFFFFB6
S31500000450FFFFFFFFFFFFFFFFFFFFFFFFFFFFFFFFA6
S31500000460FFFFFFFFFFFFFFFFFFFFFFFFFFFFFFFF96
S31500000470FFFFFFFFFFFFFFFFFFFFFFFFFFFFFFFF86
S31500000480FFFFFFFFFFFFFFFFFFFFFFFFFFFFFFFF76
S31500000490FFFFFFFFFFFFFFFFFFFFFFFFFFFFFFFF66
S315000004A0FFFFFFFFFFFFFFFFFFFFFFFFFFFFFFFF56
S315000004B0FFFFFFFFFFFFFFFFFFFFFFFFFFFFFFFF46
S315000004C0FFFFFFFFFFFFFFFFFFFFFFFFFFFFFFFF36
S315000004D0FFFFFFFFFFFFFFFFFFFFFFFFFFFFFFFF26
S315000004E0FFFFFFFFFFFFFFFFFFFFFFFFFFFFFFFF16
S315000004F0FFFFFFFFFFFFFFFFFFFFFFFFFFFFFFFF06
S315000005003C01FE1F0B0006502000000020000100E9
S315000005102F0000002F0001000C0001001100000058
S31500000520300000003000010024000000240001001B
S315000005302400020024000300240004002400050017
S315000005401300000017000000230000002100000037
S31500000550210001000700000007000100070002005B
S315000005600700030007000400070005000700060057
S315000005700700070012000000440000000800000009
S315000005800B00000041000000400000004000010098
S3150000059004000000430000002B0000002B000A00AE
S315000005A02B000B002B000C002B000D002B00010074
S315000005B02B0002002B0003002B0004002B0005007B
S315000005C02B0006002B0007002B0008002B0009005B
S315000005D00600000006000A0006000B0006000C00DC
S315000005E006000D0006000E0006000F0006000100C2
S315000005F006000200060003000600040006000500CF
S3150000060006000600060007000600080006000900AE
S315000006101500000015000100150002003100000061
S315000006202A00000045000000100000000301000041
S3150000063003000000030001000F0000000D00000091
S315000006402D000000420000002C0000002C000100DC
S315000006502C0002002C0003003200000028000000DD
S31500000660180000001400000014000100140002002D
S315000006701400030014000400140005001400060012
S3150000068014000700140008001400090034000000DC
S3150000069034000100160000001600010035000000BD
S315000006A03600000036000100220000003300000082
S315000006B0330100002900000010B5054C237833B93A
S315000006C0044B13B10448AFF300800123237010BD1F
S315000006D0B000FE1F00000000343D000008B5034BCB
S315000006E01BB103490348AFF3008008BD00000000BA
S315000006F0B400FE1F343D0000114A136870B4040AAA
S315000007009C4216D25668C0B200F11005012356F875
S31500000710246003FA05F535420BD069B100EB0410ED
S31500000720936853F82030C3F3400300200B7070BC6D
S315000007307047032070BC7047184670BC704700BFF6
S315000007407800FE1F084B1A68000A904207D241B192
S31500000750DA684301043200209B580B80704703205F
S3150000076070470120704700BF7800FE1F084B1A68CB
S31500000770000A904208D249B1DA68430104320020E7
S315000007809B581B0C0B807047032070470120704755
S315000007907800FE1F70B4134C2268030A93421BD2E2
S315000007A06668C0B200F11005012256F8236002FA0D
S315000007B005F5354210D091B1E4685B01043402FAC4
S315000007C000F01C5983B233EA144313BF0020002003
S315000007D00A70087070BC7047032070BC70471046E2
S315000007E070BC70477800FE1F0C4B10B41C68000AE2
S315000007F0A0420ED26AB1DB685DF8044B083303EB06
S31500000800401022EA01030A4042EA03424260002005
S31500000810704703205DF8044B704700BF7800FE1F49
S31500000820144A70B41468030AA3421DD25668C0B2B3
S3150000083000F11004012556F8236005FA04F4344249
S3150000084012D0A94210D8D26802F1080202EB431373
S3150000085005FA00F05D680AD045EA0040000C000485
S31500000860586070BC00207047032070BC7047284356
S3150000087080B2F5E77800FE1F18B1034B0360002035
S3150000088070470120704700BF06010201012920D8E8
S3150000089070B4124C2368020A9A4217D26668C0B234
S315000008A000F11005012356F8226003FA05F53542DA
S315000008B00CD003FA00F083B269B10020E16852015E
S315000008C008311843505070BC00207047032070BC9C
S315000008D070470320704700040B46EFE77800FE1FC1
S315000008E0012957D82E4BF0B41C68020AA2424ED2F8
S315000008F05D68C0B200F11006012455F82250B440DC
S315000009002C4244D000EB02109C681D6954F820303C
S31500000910002941D043F00401224E0E40EFF3108728
S31500000920012383F31088204B1A8892B222B94FF024
S31500000930400CEA7085F803C01A88013292B21A8018
S3150000094087F31088CF0354F8202007D5174F22F4D9
S3150000095080320F4044F8202044F8207044F820608C
S31500000960EFF31081012282F310881A8892B21AB12D
S315000009701A88013A92B21A801B889BB213B9802258
S31500000980EB70EA7081F310880020F0BC70470320FA
S31500000990F0BC70470320704723F00401BCE700BF9A
S315000009A07800FE1FD5FC011FCC00FE1FD5FC001FE2
S315000009B0B2B10C4B10B41C68000AA0420CD2DB6822
S315000009C022EA0104400108330A4042EA0442C250C6
S315000009D05DF8044B0020704703205DF8044B704718
S315000009E0032070477800FE1FD2B10E4B70B41C680E
S315000009F0000AA04211D2DD68400102EA01032E5826
S31500000A002C58334361EA02029BB2210C1A400904B6
S31500000A100A432A50002070BC7047032070BC704700
S31500000A20032070477800FE1FF8B500283BD0096800
S31500000A301E4F4FF0000C01EBC00066464FF0010E52
S31500000A408D8840F2024295424FF000030BD10C68AC
S31500000A500EFA03F204F0B854D2B2B4F1807F0CBFA0
S31500000A60164342EA0C0C0133032B06D037F8132049
S31500000A709542ECD00133032BF8D108318142DFD106
S31500000A806FEA0C0C5FFA8CF4012002F04FFA084B67
S31500000A9093F8BB241643264083F8BB640120BDE8C7
S31500000AA0F84002F013BA0646FF24EDE7583300007B
S31500000AB000E0014070B582B002AB002403F8044D9B
S31500000AC0054618460E4601F09DFF9DF80430DB07EB
S31500000AD015D5202D10D8012E0ED80A4B1B691A7871
S31500000AE013BF154302F0300222EA050505F0300572
S31500000AF020461D7002B070BD032002B070BD0620F6
S31500000B0002B070BD7800FE1F2DE9F0470746011DB3
S31500000B100088FFF789FF3B88002B4ED0DFF8A4E062
S31500000B20274900224FF0010C4FF0400A4FF0800990
S31500000B307B68DEF8106053F83250DEF8084003EBAD
S31500000B40C2039B88180ADBB203EB0013EFF310888D
S31500000B508CF31088088880B210B9F07086F803A06C
S31500000B600888013080B2088088F3108815F4803F29
S31500000B7054F8230007D020F4803025F4803844F858
S31500000B80230044F8238044F82350EFF310808CF3BD
S31500000B9010880B889BB21BB10B88013B9BB20B8064
S31500000BA00B889BB213B9F37086F8039080F3108814
S31500000BB001323B8892B29342BAD80020BDE8F08752
S31500000BC0CC00FE1F7800FE1F18B143680BB1FFF77B
S31500000BD09BBF0120704700BF00283AD04368002B16
S31500000BE037D02DE9F04186B006AD002309220193E6
S31500000BF005F8142D184A194CD2F80C8002930646B3
S31500000C00CDE90333059302A92846C047029BE3605A
S31500000C100A22BDF80C308DF8042002A9059A6260FC
S31500000C20284601272360C047029B8DF80570284699
S31500000C3002A9A360C0477368029A22612BB13046AD
S31500000C40FFF762FF06B0BDE8F081384606B0BDE8A2
S31500000C50F0810120704700BF0C3400007800FE1FB1
S31500000C602DE9F0412F4C23684FEA1028984584B0AF
S31500000C7053D26268C5B205F11003012752F8282045
S31500000C8007FA03F3134248D00E4604A902AA034604
S31500000C9041F80C2D3846ADF80C300296ADF80070D0
S31500000CA005EB0815FFF7C0FE2169A068EFF3108475
S31500000CB087F310881C4B1A8892B212B94027CA7063
S31500000CC0CF701A88013292B21A8084F31088F40326
S31500000CD050F8252007D522F4803226F4803440F8D7
S31500000CE0252040F8254040F82560EFF310800122CA
S31500000CF082F310881A8892B21AB11A88013A92B20F
S31500000D001A801B889BB213B98022CB70CA7080F3FD
S31500000D101088002004B0BDE8F081032004B0BDE8CF
S31500000D20F08100BF7800FE1FCC00FE1F80B1094B8A
S31500000D3002689A420AD110B44468427CA35C61F30B
S31500000D400103A35400205DF8044B70470720704749
S31500000D50012070475543490068B1084B02689A4222
S31500000D6007D14168427C8B5C43F080038B540020A2
S31500000D707047072070470120704700BF5543490060
S31500000D8068B1084B02689A4207D14168427C8B5C85
S31500000D906FF3C7138B54002070470720704701205C
S31500000DA0704700BF5543490020B1034B1B680360E1
S31500000DB000207047012070478033000090B11A4B25
S31500000DC002689A420CD190F9103013F1210F29D004
S31500000DD0002B10B508DA184601F0BEFF002010BD42
S31500000DE007207047012070475909203101220F4C16
S31500000DF003F01F0302FA03F344F82130BFF34F8FC9
S31500000E00BFF36F8F90F91030002BE4DB590903F024
S31500000E101F006031824044F82120184601F09CFFF3
S31500000E20002010BD642070475543490000E100E0F2
S31500000E3048B3234B02689A4223D130B5044683B0A7
S31500000E4090F91000637CADF806300022062310F1FD
S31500000E50210FADF804208DF804300BD0904214DA3F
S31500000E6001F07AFF174B94F910201B6853F83230C3
S31500000E7000221A6001A801F0CFFF0020206003B015
S31500000E8030BD0720704701207047420920320123F8
S31500000E900D4900F01F0003FA00F041F82200BFF3ED
S31500000EA04F8FBFF36F8F94F910000028D8DB4209EB
S31500000EB0603200F01F05AB4041F82230D0E700BF9A
S31500000EC0554349005C39000000E100E0A8B1154B2C
S31500000ED002689A420FD190F9103013F1210F1ED0FB
S31500000EE010B50446184601F037FF94F91020002A81
S31500000EF005DA002010BD072070470120704753090E
S31500000F009B0003F1604303F56143012102F01F02D8
S31500000F1001FA02F2C3F8802100201A6010BD642095
S31500000F20704700BF5543490000B583B0EFF3038314
S31500000F300D4A0093103B12685BB252F833301B68BF
S31500000F409A6832B102A8D9685B7C019340F8081D03
S31500000F509047EFF30383A3F1100040B2009301F032
S31500000F60FBFE03B05DF804FB5C390000F0B583B00E
S31500000F7002AB002443F8044D15461F4E44801A4622
S31500000F800C463369297898479DF904302374A0B933
S31500000F9013F1210F11D06A7818491201002BD2B231
S31500000FA0086822DB03F1604101F5614181F8002305
S31500000FB050F833102A790C600AB903B0F0BD184610
S31500000FC001F0CAFE94F91020002AF6DB53099B00B3
S31500000FD003F1604303F5614302F01F02012101FAA8
S31500000FE002F2C3F880211A60E7E7054903F00F060D
S31500000FF031440A76DCE700BF0C3400005C3900009F
S31500001000FCEC00E0F0B587B000294CD000284AD0AF
S3150000101006462C4800230622CDE90133CDE90333E9
S3150000102005930D46C3688DF8042002A901A89847C8
S315000010300446002834D1029ABDF80E3072602A7830
S31500001040C3F380030133B2EBC30F34D2AB6813B1E1
S315000010506B78FF2B34D001A8ADF8062001F0A8FE6E
S31500001060044620BBD5E90223C6E902232B78737414
S315000010702A4601A83146FFF779FF7268737CE87843
S31500001080D15CAF786D7960F30511D154D15C0E480F
S3150000109067F30101D154D15C65F3C711D1543060B7
S315000010A0204607B0F0BD0124204607B0F0BD082455
S315000010B0204607B0F0BD40F27A54204607B0F0BD96
S315000010C00324EDE70C34000055434900024658B1AD
S315000010D0064B07491B68002B08BF0B4600205968C2
S315000010E003EB810313607047012070478C00FE1FDD
S315000010F00435000078B10A4B1B6873B15A6800F1D9
S31500001100100103EB820353F8042F40F8042B8842A6
S31500001110F9D100207047012070471C20704700BF9E
S315000011208C00FE1F20B1034B1B6803600020704734
S31500001130012070472434000040B33AB3174BF0B592
S315000011401E682EB3164B07781B68002404E0013492
S31500001150B44203F108031BD09D79BD42F7D193F841
S3150000116005C04588B5EB9C0FF1D1DD7990F801C03B
S3150000117005F0070EE645EAD1B1EBD50FE7D19B881E
S315000011801470C3F3090353800020F0BD012070479B
S31500001190DF21FF23117053800B20F0BD0401FE1FD9
S315000011A05C390000F0B4284C216851B1234604F59F
S315000011B07F70002201E053F8041F98420A44FAD1D6
S315000011C01AB100BE1D20F0BC7047204820490260BD
S315000011D00B681D0CB5F5807F02D00020F0BC70476F
S315000011E01D68013D0335F8D81A4D5E6AAE42F4D14A
S315000011F003600D686368696804EB830305EB81058A
S31500001200232001214FF47E4602E0013201310138EC
S3150000121026FA02F4E40707D5072A0FD0082A06D0D3
S315000012201F5C2C5CA742CCD11029EED1D5E7EC7E11
S31500001230372CEAD0DF7EA742E7D0C2E72F7F1C7F9C
S31500001240A742E2D2BDE700BF043500008C00FE1FB6
S315000012509CB17F4052374653002850D000294ED0CB
S315000012602DE9F041864D0278AC6805EB8404A3783D
S315000012709A4252D24FEA121C04EB8C0702F00F0678
S31500001280B7F8088028FA06FE1EF0010F45D0072E93
S31500001290BF7A36D8DFF8F0C17A4A1CF8066006EA4B
S315000012A008061B09925D02333A449B0003EB420396
S315000012B0E618E25A96F90160C2F30902002E05EB20
S315000012C0820332DB4BB346785EBBDF784088D4F8C6
S315000012D004C03E46C6F30304C7F3031701264F7244
S315000012E08C728E80002840F0AC8035F822209B78E6
S315000012F0CB800CEB02220A600872C8600FE0012066
S31500001300704704EB8C0C02F007069CF80B2002F0E9
S315000013100F0217444FEA1828BCE74FF4AF60BDE848
S31500001320F08140F27950BDE8F08115F82220457829
S3150000133052083DB9042A00F2A180DFE802F0636397
S3150000134063503C004FF0020C012604271C78E4078A
S3150000135005F1FF35E5D5052A0CD8DFE802F023258F
S31500001360181210039A78D41C1CFB026202EB94023A
S3150000137003EB82031A785208002DE7D1DAE7083327
S31500001380F8E79A7817FB026203EB8203F2E71C790F
S315000013909A7812FB04F20332033402EB940203EB55
S315000013A08203E7E70C33E5E71A79033202F4FE72AB
S315000013B00C321344DEE7D8785C785D680D60002354
S315000013C00246C2F30302C0F303108B800B72CB609C
S315000013D0A307CC8048728A72A3D500209FE7D878ED
S315000013E05C789D78CC800246C0F30310C2F30302FA
S315000013F004330424487200208A728D80CB600C72FC
S3150000140008608CE7DD781E7940882C46C5F3031505
S315000014104D72B5B2C4F3030485428C728D8010D927
S31500001420DC889D68012A00FB04540C601DD0022A4A
S315000014300AD0B3F80130CB8000220A72CA60002BB2
S31500001440CBD140F27A506AE79C78033600FB04F26F
S3150000145002EB96061844F21C03EB8203027BCA8059
S31500001460CB600C72002AB8D1EBE718440023027B4C
S31500001470CA800B72CB60002AAFD1E2E764204EE748
S31500001480043500008433000004340000034B0430AC
S315000014901B6823F820100020704700BFD000FE1FF5
S315000014A0034B021D1B68002023F82200704700BF73
S315000014B0D000FE1F034B1A68137843F080031370A5
S315000014C000207047D000FE1F034B1A6813786FF395
S315000014D0C713137000207047D000FE1F20B1034BC6
S315000014E01B680360002070470120704744340000E9
S315000014F060B1012808D1094B1B6800204021412218
S31500001500187119711A71704701207047034B1B68D7
S3150000151040214122987099709A707047D000FE1F42
S31500001520F0B587B0002832D004461A4800230B22B3
S31500001530CDE90133CDE90333059302A9C3688DF8DC
S31500001540042001A89847054610B1284607B0F0BD0B
S31500001550114F029B3B6001A801F0B4FB606858B1D3
S31500001560A3683E6803EB8000598813F8042B043205
S31500001570834226F82210F7D12378002BE5D03A686B
S315000015801378284643F08003137007B0F0BD012599
S31500001590DBE700BF0C340000D000FE1F06207047BA
S315000015A00620704720B1034B1B680360002070477C
S315000015B001207047B4340000324A136893F82810AB
S315000015C001F03003102B0CD0202B02D000239361A6
S315000015D0704790F82B302C499B0931F8131059B9F4
S315000015E07047038D10B403F00303284C34F813300E
S315000015F003BB5DF8044B7047D2ED047A90F82B30AC
S31500001600B8EE676A07EE901AF8EE676A03F01F03F2
S31500001610C6EE267A07EE103AB8EE477AF7EE006A7B
S3150000162037EE267A67EE877AFCEEE77A17EE903A7F
S315000016309361704707EE903A4B06B8EE677A19D475
S31500001640032102EB8101D1ED016A038D5DF8044BA4
S31500001650F8EE666AC3F3052386EE876A013307EE62
S31500001660903AFAEEEF7A67EE867AFCEEE77AC2ED0A
S31500001670067A7047038D13F0100F0CBF032100216B
S31500001680DFE700BF9000FE1FC0340000D03400002A
S31500001690A9B1062810B430D0052812D0042834D0B9
S315000016A020B3012841D0022837D0032845D1244C45
S315000016B00023E0690B60026A02F0070208E00120DD
S315000016C070471F4C0023E0690B60026AC2F3027286
S315000016D090F8263003F0070304EB830300205B68D1
S315000016E023FA02F20A605DF8044B7047144C086056
S315000016F0E069026AC2F30232EAE7114C0023E069AC
S315000017000B60026AC2F30262E2E70D4C0023E06955
S315000017100B60026AC2F30242DAE7094C0023E06971
S315000017200B60026AC2F30212D2E7054C0023E0699D
S315000017300B60026AC2F30222CAE70320D3E700BFA6
S315000017409000FE1F38B50D784B788A78002465F333
S315000017500E3463F30A24CB780D7962F3061463F32F
S3150000176002044A798B7965F3124462F31E740546C6
S3150000177063F31A64002001F0D9FB2C620020BDE857
S31500001780384001F0A3BB00BF10B5174BDC6994F8D5
S315000017904120D0070CD51A6894F8263092F82820F4
S315000017A0510603F007030AD4052B0DD0032B0BD0EB
S315000017B094F84130DB074FF0000008D410BD228DAD
S315000017C0D206F3D4052BF1D140F2971010BD01F0EB
S315000017D0ADFB94F841306FF3000384F841300020EC
S315000017E001F074FB002010BD9000FE1F38B5084BB9
S315000017F0DC690546002001F099FB94F8303065F36A
S31500001800000384F83030002001F060FB002038BD72
S315000018109000FE1F084B10B5DC69002001F086FB26
S3150000182094F8523043F0010384F85230002001F05E
S315000018304DFB002010BD00BF9000FE1F084B10B5E9
S31500001840DC69002001F072FB94F852306FF300035C
S3150000185084F85230002001F039FB002010BD00BF93
S315000018609000FE1F084B10B5DC69002001F05EFBFE
S3150000187094F83E3043F0800384F83E30002001F0B7
S3150000188025FB002010BD00BF9000FE1F084B10B5C1
S31500001890DC69002001F04AFB94F83E306FF3C71371
S315000018A084F83E30002001F011FB002010BD00BF7F
S315000018B09000FE1F084B10B5DC69002001F036FBD6
S315000018C094F8533043F0010384F85330002001F0BC
S315000018D0FDFA002010BD00BF9000FE1F084B10B59A
S315000018E0DC69002001F022FB94F853306FF300030B
S315000018F084F85330002001F0E9FA002010BD00BF43
S315000019009000FE1F38B5084BDC690546002001F043
S315000019100DFB94F8243065F3061384F82430002078
S3150000192001F0D4FA002038BD9000FE1F03788B42E8
S3150000193014D343788B4211D383788B420ED3C3786A
S315000019408B420BD343798B4208D30379994205D84E
S31500001950807981428CBF05200020704705207047A2
S3150000196030B52DED028B83B0CDE90001A0B308EEB2
S31500001970901A08EE100A00F099FF07EE900AB8EEEA
S31500001980677AF7EE006AC6EE877A194A194C156827
S315000019900020106094F82330D9B2F8EE688AB8EEC9
S315000019A0488A67EEA88AC8EE287AFCEEE77A17EE30
S315000019B0903A013BB3F1807F13D2536001F0F001FE
S315000019C0F025072384F823509060136084F82310D1
S315000019D003B0BDEC028B30BD032003B0BDEC028B1F
S315000019E030BD1220156003B0BDEC028B30BD00BFC8
S315000019F010E000E000ED00E0052827D0144B042895
S31500001A0070B5DC6903D194F88034DB071BD4054636
S31500001A1000200E4601F08AFA94F83E306FF3C713A1
S31500001A2084F83E3094F83E3066F3061384F83E3070
S31500001A3094F83E3065F3020384F83E30002001F04E
S31500001A4045FA002070BD4FF4C87070BD0320704782
S31500001A509000FE1F30B583B0002953D002460028FF
S31500001A6070D0414CE36993F8AA0010F0010063D1ED
S31500001A7093F8A000196A2568C1F302318DF80010A9
S31500001A80196AC1F302218DF80110196AC1F3021116
S31500001A908DF80210196AC1F302018DF80310196A54
S31500001AA0C1F302418DF80410196AC1F302718DF871
S31500001AB005101B6AA968C3F3026300F003008DF8E2
S31500001AC0063009B1032840D0EB680BB1022844D098
S31500001AD01146012000F0AEFFE469002001F026FA6D
S31500001AE094F8403043F0800384F8403094F8403056
S31500001AF043F0010384F84030002001F0E7F90020AC
S31500001B0003B030BD184BDD6995F84130DB0715D4BD
S31500001B1008460C4601F00AFA95F8403064F30003D3
S31500001B2085F8403095F8403064F3C713204685F8B1
S31500001B30403001F0CBF9204603B030BD4FF4CB70F6
S31500001B4003B030BD012003B030BD29696846FFF7F8
S31500001B50EDFE0028BCD00520EEE769696846FFF770
S31500001B60E5FE0028F7D1B3E79000FE1F38B50B4B12
S31500001B7004461B68002093F8225001F0D7F994F828
S31500001B808034DB0705D594F8813423EA050384F80D
S31500001B9081340020BDE8384001F098B99000FE1F5E
S31500001BA006207047062070470620704706207047BB
S31500001BB028B321B3134BDB6993F82620C2F3020244
S31500001BC002701A6AC2F302320A701A6AC2F3022259
S31500001BD04A701A6AC2F302128A701A6AC2F30202C1
S31500001BE0CA701A6AC2F302420A711A6AC2F3027210
S31500001BF04A711B6AC3F302638B7100207047012090
S31500001C00704700BF9000FE1F05292ED8DFE801F0BF
S31500001C100A11181F260390F82A0000F0010080F030
S31500001C200100704790F8360000F0010080F00100D6
S31500001C30704790F8380000F0010080F0010070470E
S31500001C4090F8900400F0010080F00100704790F8D1
S31500001C50320000F0010080F00100704790F8800427
S31500001C6000F0010080F0010070470020704700BFBF
S31500001C7030B5A1F1020483B04FF6FF73B4FA84F4D1
S31500001C800546640901930A4A04E0019B43B1019B9E
S31500001C90013B01932946D069FFF7B6FFA042F4D174
S31500001CA0019B002B0CBF4FF4CD70002003B030BD5C
S31500001CB09000FE1F70B5344C86B0204600F0A8FE9A
S31500001CC006A800230322009300F8182D2F4ACDE919
S31500001CD00233CDE9043302A9D3689847029DE56132
S31500001CE04FF6FF73019395F83630DA0705D50BE00A
S31500001CF0019B33B1019B013B019395F83C30DB0717
S31500001D00F6D5019B002B39D0002001F00FF995F88C
S31500001D10A530062262F3020385F8A530002001F003
S31500001D20D5F82368E669D3E9061200254FF6FF7356
S31500001D302261174A019328464FF40043C4E902235F
S31500001D406160A561636101F0F1F896F8803443F0B3
S31500001D500103284686F8803401F0B8F801210420F2
S31500001D60FFF786FF054648B9E36918461A6A93F8ED
S31500001D702630FFF7FBFE284606B070BD4FF4CD7542
S31500001D80284606B070BD00BF9000FE1F0C34000050
S31500001D9000127A00052828D838B5524DEA6992F81B
S31500001DA0263003F0070398421CD0052B12D092F878
S31500001DB02A30DB070ED50128044618D192F84030A8
S31500001DC0DB097DD110462146FFF71EFF00283BD1D7
S31500001DD0002038BD2B6893F828305C062DD40323E9
S31500001DE09842E8D140F2911038BD03207047104662
S31500001DF02146FFF709FF0028EAD0032CED6935D00C
S31500001E00052C2CD0002C49D195F83C30D9072AD581
S31500001E10204601F08BF895F8363043F0010385F83B
S31500001E203630002001F052F820460121FFF720FF4E
S31500001E300028CDD04FF4CD7038BD138D13F0100FA0
S31500001E400CBF03230023CBE70020ED6901F06EF8F9
S31500001E5095F8383043F0010385F83830E1E795F816
S31500001E603C309B0610D440F2931038BD95F83C30B8
S31500001E701A07F8D5002001F059F895F8323043F0EA
S31500001E80010385F83230CCE7002001F04FF895F8D1
S31500001E902A3043F0010385F82A30C2E7002001F01A
S31500001EA045F8042CBDD801A353F824F0171E0000F2
S31500001EB0511E0000D51E00007B1E0000C71E00003C
S31500001EC040F2951038BD95F8803443F0010385F84B
S31500001ED08034A6E795F8903443F0010385F89034F2
S31500001EE09FE700BF9000FE1F05281DD808B5431EBA
S31500001EF0012B014608D9042806D068B1032815D05D
S31500001F0005281FD0002008BD194BD869FFF77CFEB5
S31500001F1038B140F2911008BD154AD069FFF774FE3A
S31500001F20F0B94FF4C87008BD03207047104AD06955
S31500001F30FFF76AFE0028F4D0D36993F83C301B07FC
S31500001F4013D40AE00A4AD069FFF75EFE0028E8D0FB
S31500001F50D36993F83C30990607D440F2931008BD34
S31500001F60D36993F83C30DA07F7D54FF4C97008BD4A
S31500001F709000FE1F70B506464FF6FE7440F29315AC
S31500001F8001E0013C05D03046FFF7AEFFA842F8D08D
S31500001F9000B970BD6FF4C873C318012B98BF002039
S31500001FA070BD00BF30B583B04FF6FF730446012005
S31500001FB001930D4600F0BAFF02A8002300F8053D84
S31500001FC000F0ECFB94F8AA30D90604D494F8A030BB
S31500001FD0C3F3001353B1019B013B0193019B002BFB
S31500001FE0F0D1012000F072FF03B030BD94F8AA20B2
S31500001FF063F300024FF6FF7384F8AA20019302E010
S31500002000019B013B019394F8AA30DA0603D494F8B5
S31500002010A030DB0602D5019B002BF1D194F8A0304D
S31500002020042D0CBF43F0030365F3010384F8A030CD
S315000020304FF6FF73019302E0019B013B019394F875
S31500002040AA30D80603D494F8A030D90602D5019B4D
S31500002050002BF1D194F8AA30042D0CBF43F00103F4
S315000020606FF3000384F8AA304FF6FF73019302E082
S31500002070019B013B019394F8AA30DA0603D494F845
S31500002080A030DB0602D5019B002BF1D19DF80300A1
S3150000209000F098FB012000F019FF03B030BD00BF2F
S315000020A00428124B0BD0022809D01A6892688A427B
S315000020B004D3D86990F82A30DB0714D47047D8695E
S315000020C090F82A20D207F0D590F83220D207ECD526
S315000020D090F83620D207E8D590F83820D207E4D514
S315000020E00421FFF75FBF0321FFF75CBF9000FE1FCF
S315000020F0052837D82DE9F843AE4E2DED028B0D4657
S3150000210004460146F069FFF77FFD0746002842D1E5
S31500002110042C57D0012C44D034B3032C60D0052CAA
S3150000212000F0B880F56900F001FF032C00F09C80F8
S31500002130042C4ED0022C3ED195F890346FF3000358
S3150000214085F89034002000F0C1FE20460221FFF7FA
S315000021508FFD002814BF4FF4CD700020BDEC028B1C
S31500002160BDE8F88303207047F56995F83C30DB0736
S3150000217000F1818095F8AA30DF0700F1858095F897
S31500002180A030002000F0D2FE95F836306FF3000341
S3150000219085F83630D6E7F069FFF70EFA40F291106F
S315000021A0DCE7F56995F8AA30DA0767D495F8A03028
S315000021B0002000F0BBFE95F838306FF3000385F879
S315000021C03830BFE7F069FFF7D1FC3846F56900F013
S315000021D0ADFE95F880346FF3000385F88034B1E7DF
S315000021E0F76997F83C30180745D497F8AA30D9070D
S315000021F000F1BD8097F8A0303168002091F8275093
S3150000220091F8208091F8219000F090FE97F8133411
S3150000221005FA09F25BB25A4002EA08025340DBB201
S3150000222087F81334002000F051FEF569002000F015
S315000022307DFE95F813346FF3861385F8133400206A
S3150000224000F044FEF569002000F070FE95F8A2301B
S31500002250052262F3030385F8A230002000F036FE63
S315000022600020F56900F062FE95F832306FF3000346
S3150000227085F8323066E740F293106FE7284603216F
S31500002280FFF790FEF56993E728460321FFF78AFEDC
S31500002290F56976E7002D70D03368697893F82420C5
S315000022A091425FD893F8262095ED017A07EE902AA1
S315000022B0F8EE677AF4EEC77AF1EE10FA52D493F894
S315000022C0253007EE903AF8EE677AB4EEE77AF1EE4B
S315000022D010FA47D42978032901D0002942D1F069A0
S315000022E0FFF792FC00284AD0F76997F83C309A0627
S315000022F0C1D497F8AA30DB0756D497F8A03095F8E2
S315000023000080002000F012FE3B8DB8F1030F0CBFD9
S315000023106FF3041343F010033B85002000F0D6FD55
S315000023203368F76993F8283095F8018003F0300395
S31500002330102B41D0202B53D095ED018A202B21D094
S31500002340F069FFF739F90021F069FFF72BFEF5690F
S31500002350002000F0EBFD95F82A306FF3000385F8B6
S315000023602A30EFE6BDEC028B0320BDE8F883384641
S315000023702146FFF717FEF7693EE70120EEE64FF428
S31500002380CA70EBE6002000F0D1FDFCEEC87A97F8A3
S315000023902B2017EE903A013B63F3040287F82B20BB
S315000023A0002000F093FDCBE738460321FFF7FAFD46
S315000023B0F769A4E79000FE1F214B002033F8189020
S315000023C000F0B4FD3B8D69F301033B85002000F06E
S315000023D07DFD336893F8283003F03003202B13D1AA
S315000023E0184B002033F8188000F0A0FD97F82B302A
S315000023F068F3871387F82B30002000F067FD3368F9
S3150000240093F8283003F03003102BF76995ED018A15
S3150000241094D1002000F08AFD78EE087A3A8DFCEE21
S31500002420E77A002017EE903A013B63F30D223A85D6
S3150000243000F04CFD336893F8283003F030037DE755
S31500002440C8340000B8340000012814D0022801D096
S3150000245000207047052938B515460C460ED0291DB3
S315000024602046FFF745FE20B140F29113984200D076
S3150000247038BD002038BD0846FFF78CBC11461079E0
S31500002480FFF736FE18B140F291139842F0D1287941
S31500002490FFF770FD0028E2D0EAE700BF2DE9F0471C
S315000024A0052884B000F28A80002900F08C800B7821
S315000024B08A799342C0F082804C789C427ED3CC7855
S315000024C09C427BD84B79934278D30C79944275D34E
S315000024D004280C4605467BD05B4FF86990F82630F9
S315000024E003F007039D4207D0002D40F0878090F847
S315000024F03C30D90740F18B80036A036A036A036A9A
S31500002500036A036A036A0021C3F30268FFF74AFD00
S3150000251007EB8502A0795368F969C340002201934D
S315000025208DF800208DF80C200A6A91F8263003F009
S31500002530070307EB8303C2F302625B686846D34076
S31500002540029300F0C3F90646002838D1A379D7F8DC
S315000025501C90434505F0070A5CD921464846FFF71B
S31500002560F1F8FC69304600F0E1FC94F826306AF395
S315000025700203304684F8263000F0A8FCFB691A6A8C
S3150000258093F8263003F0070307EB8307C2F30262D2
S315000025907B686846D340012202938DF8002000F044
S315000025A095F9064658B900F081F9284B18600028BD
S315000025B046D001462846FFF773FD00E00326304665
S315000025C004B0BDE8F0870126304604B0BDE8F087C8
S315000025D092B98BB91C4FF86990F84030DB090BD1E2
S315000025E090F8263003F00703042B85D02946FFF721
S315000025F00BFB28B3F8697FE70526E0E7032D19D022
S31500002600052DF3D190F83C309B063FF575AF40F2AF
S315000026109316D4E700F08AFC99F826306AF3020391
S31500002620304689F8263000F051FC2146F869FFF75C
S3150000263089F8A3E790F83C301A073FF55DAFE6E767
S315000026404FF4C876BBE700BF9000FE1F1C01FE1FBB
S315000026502DE9F04F83B0002853D0DFF83C9107787E
S31500002660D9F81C30467D93F826801A6A1A6A1A6AC7
S315000026701A6A1A6A1A6A1B6A027DC37DC17C8DF8C2
S3150000268001208DF80330827D037E8DF80060052FD2
S3150000269008F007088DF802108DF804208DF8053033
S315000026A02AD802AA3A4412F8082C012A24D0022B6E
S315000026B008D10279052A1FD802A90A4412F8082C63
S315000026C0012A19D08246524618460521FFF7BCFE5C
S315000026D00446D8B9054640F2911BE9B23046524647
S315000026E0FFF7B2FE0135044608B1584505D1052D60
S315000026F012D01DF80560F0E70324204603B0BDE8BC
S31500002700F08F0124204603B0BDE8F08F40F291130C
S315000027109842F2D10025DEE73846FFF72BFC044647
S315000027200028EAD1042F19D025460AF10C013846B3
S31500002730FFF7B4FE04460028DFD1474505D002ABBB
S31500002740434413F8083C012B1DD0002DD5D000F0D2
S31500002750ADF801463846FFF7A3FCCEE7D9F81C30A2
S3150000276093F82A20D00715D593F83220D10711D532
S3150000277093F83620D2070DD593F8385005F00105A9
S3150000278085F00105D1E74046FFF704FB0028DCD0C1
S315000027900446B2E70125C8E79000FE1F68B1084A63
S315000027A0B2F8001192F80031C1F300016FF3000393
S315000027B00170002082F8003170470120704700BF89
S315000027C000C00140104991F8043143F0010381F83B
S315000027D00431B1F80431DB070AD54FF0FF3300E0CE
S315000027E07BB1B1F80421D20703F1FF33F8D443B12A
S315000027F0054A92F8003160F3000382F800310020A8
S3150000280070471420704700BF00C0014070B5254DC9
S3150000281082B02B6898470120FFF7D4FF0021AE68ED
S315000028200320B0470121204AEC698DF801100323EB
S3150000283001928DF800300320A047B0F5C97FFAD188
S3150000284069460520B04728B140F29113984201D05D
S3150000285000BEEC690520A047B0F5C97FFAD1022376
S31500002860012200208DF806008DF801308DF8023027
S315000028708DF8053069468DF800208DF803208DF817
S3150000288004202B690520984700B100BE2B6E04205A
S315000028909847AB6A01209847EB6A9847AB6D984713
S315000028A002B070BD483400000000A04100B583B0FE
S315000028B002A9002341F8043D034B06209B69984773
S315000028C0019803B05DF804FB483400000378C3B1F7
S315000028D0012B14D18368454A017B93424AD9444A65
S315000028E093425CD9434A92F81C3103F0070399429C
S315000028F005D092F81C3161F3020382F81C310020E6
S315000029007047426839498A4253D93B4B70B4F12526
S315000029101D71197A364E41F004011972197A41F087
S3150000292008011972197A41F001011972197AF02415
S3150000293041F00201B24219721C7105D91D71197A52
S3150000294041F0100119721C712C4B2A499A4294BF0E
S3150000295001230223037391F81C2102F007029A4215
S3150000296005D291F81C2163F3020281F81C21002094
S3150000297070BC7047204BF1221A711A7A6FF38202EB
S315000029801A721A7A6FF3C3021A721A7A6FF3000276
S315000029901A721A7AF0206FF341021A721871164BE6
S315000029A0F1221A711A7AF0206FF304121A72187152
S315000029B098E713498A4205D80E4A037392F81C31E8
S315000029C0002070470D4B0B499A4294BF0123022306
S315000029D0037391F81C2102F007029A428FD291F8F4
S315000029E01C2163F3020281F81C2188E7000E2707E9
S315000029F000C2EB0B00C001400020004000688909BE
S31500002A0000B4C404037843F003030370704700BFA7
S31500002A10014B0360704700BFD8340000044B00210F
S31500002A2003F1300243F8041B9342FBD1704700BF09
S31500002A30D400FE1F024B43F820100020704700BF51
S31500002A40D400FE1F08B56F4BB3F84031D90700F12B
S31500002A50CB806C4BB3F840319A0700F1B880694BD4
S31500002A60B3F840315B0700F1A580664BB3F84031FF
S31500002A70180700F19280634BB3F84031D9067FD432
S31500002A80604BB3F84001C0F3801000286CD15D4B59
S31500002A90B3F840311A065AD45A4BB3F84031DB0525
S31500002AA048D4584BB3F84031980536D4554BB3F853
S31500002AB04031590524D4534BB3F840311A0512D48A
S31500002AC0504BB3F84031DB0400D408BD4E4BDB6AF3
S31500002AD00BB10B2098474B4AB2F8303143F4805380
S31500002AE0A2F8303108BD484B9B6A0BB10A209847C3
S31500002AF0444AB2F8303143F40063A2F83031DFE7DC
S31500002B00414B5B6A0BB1092098473E4AB2F8303117
S31500002B1043F48063A2F83031CDE73B4B1B6A0BB11F
S31500002B2008209847374AB2F8303143F40073A2F8C8
S31500002B303031BBE7344BDB690BB107209847314A8C
S31500002B40B2F8303143F48073A2F83031A9E72E4B46
S31500002B501B680BB1002098472A4AB2F8303143F07F
S31500002B608003A2F8303197E7274B5B6803B198479B
S31500002B70244AB2F8303143F04003A2F8303186E7F8
S31500002B80214B9B690BB1062098471E4AB2F830319B
S31500002B9043F01003A2F8303172E71B4B5B690BB1AF
S31500002BA005209847174AB2F8303143F00803A2F8D7
S31500002BB0303160E7144B1B690BB104209847114A6A
S31500002BC0B2F8303143F00403A2F830314DE70E4B32
S31500002BD09B680BB1022098470A4AB2F8303143F09D
S31500002BE00203A2F830313AE7074BDB680BB103204A
S31500002BF09847044AB2F8303143F00103A2F8303165
S31500002C0027E700BF00600040D400FE1F114B01788B
S31500002C105A5C02F01F03920630B4448845780DD5FD
S31500002C2001222B2902FA03F00ED0332904D1012DFB
S31500002C3004BF013305FA03F030BC70472C441B1B5C
S31500002C400120984030BC7047072CF5D9013302FAB1
S31500002C5003F0F1E7043900000378452B1CD870B562
S31500002C60164CE55CFF2D26D014460E46FFF7CEFF28
S31500002C70134BAA0953F8223086B1AA0600D5D4B15F
S31500002C80EFF31082012181F3108819680843186058
S31500002C9082F31088002070BD01207047EFF3108288
S31500002CA0012181F31088196821EA0000186082F377
S31500002CB01088304670BD032070BD00BF0439000087
S31500002CC04C39000000221146FFF7C6BF034638B153
S31500002CD0054A92E80300002283E803001046704785
S31500002CE001221046704700BF74390000A0F10100B0
S31500002CF00028FBD1704700BF2DE9D04301FB00F44B
S31500002D00FFF7D4FD4FF47A71A4FB018900274FF039
S31500002D10FF364F4508BF46450E4BB3FBF0F007D3D1
S31500002D20B8FBF0F0800890B1BDE8D043FFF7DEBFF6
S31500002D308000B4FBF0F0A0FB01018F4208BF864281
S31500002D40F1D24FF0FF30BDE8D043FFF7CFBFBDE86B
S31500002D50D08300BF00CA9A3B002808DB800000F140
S31500002D60804000F5C64003686FF310430360704768
S31500002D700B4A0C4B10B49B1A0B4CDB08236063B157
S31500002D800A4800219388C3F3090340F8043B2368EB
S31500002D9001318B4202F10802F4D85DF8044B70470A
S31500002DA000050000080500000401FE1F0063004046
S31500002DB0164B10B41C687CB1154B00681A68136872
S31500002DC0984218BF002304D10AE052F8041F81423A
S31500002DD007D00133A342F8D103205DF8044B7047B6
S31500002DE000230C4A12680121134403E0C3E8401F84
S31500002DF00028F2D0D3E84F2F12F0FF0FF6D0BFF322
S31500002E002F8F08205DF8044B704700BF0801FE1F96
S31500002E100C01FE1F1001FE1F0F4B10B41C687CB185
S31500002E200E4B00681A681368984218BF002304D135
S31500002E3009E052F8041F814206D00133A342F8D1BB
S31500002E405DF8044B70470023054A12680021D154EF
S31500002E505DF8044B704700BF0801FE1F0C01FE1F02
S31500002E601001FE1FF0B5134E134C1449144A154BAE
S31500002E70DFF854C00E60A41BA4081460C3F800C099
S31500002E808CB106EB840735464FF0000E55F8040B5F
S31500002E903246002352F8041B884205D001339C4277
S31500002EA0F8D1BD42F2D1F0BDBD420CF803E0EDD140
S31500002EB0F9E700BF08050000B80600000C01FE1F78
S31500002EC00801FE1F1001FE1F0C00FE1FEFF310810C
S31500002ED0012383F31088124B33F8102092B22AB1E3
S31500002EE033F81020013A92B223F8102033F810304C
S31500002EF09BB28BB90B4A10B40B4CB2F8FE3334F8C4
S31500002F00100043F4254323EA0003A2F8FE3381F3BD
S31500002F1010885DF8044B704781F31088704700BF36
S31500002F201401FE1F00E001406039000030B4EFF3E9
S31500002F301081012383F310880C4A32F810309BB2BB
S31500002F4053B90B4C0B4DB4F8FE3335F8105043F41F
S31500002F5025432B43A4F8FE3332F8103001339BB2DD
S31500002F6022F8103081F3108830BC70471401FE1F20
S31500002F7000E0014060390000024B00221A805A80AE
S31500002F809A8070471401FE1F00BE704708B500F016
S31500002F9005F800F051F9FEE7704700BF284AD2F85D
S31500002FA0883043F4700370B50020C2F88830FFF70C
S31500002FB0F3FFFFF733FD234B1B689847FFF7DCFF52
S31500002FC0FFF724FC204A214B21481B68002414806B
S31500002FD098472049204B8B4204D0224603F8012D06
S31500002FE09942FBD11D481E4B984206D01D4A12F845
S31500002FF0011B03F8011B8342F9D1FFF757FC1A4B5B
S315000030001A4D18600120FFF7C7FF194B5B1B002BF9
S315000030104FEAA30606DD0024013455F8043B984721
S31500003020A642F9DCFFF71EFFFFF7A2FE114B12487E
S315000030301B6898470020BDE8704000F01FB800BF2D
S3150000304000ED00E00C340000CC00FE1F1C33000035
S31500003050AC390000B000FE1F4801FE1F7800FE1FBD
S315000030600000FE1F383D00001C01FE1F0400FE1F6D
S315000030700800FE1F283400006839000000F040B840
S3150000308082B04FF0C84300210091009A1A7D61F387
S3150000309000021A751A8DC8B1202161F30F221A8514
S315000030A01A8D4FF0C04142F080021A850A680092DC
S315000030B040F6FF72019204E0019A013A0192019AE8
S315000030C012B19A6A5106F7D502B0704742F47F42B0
S315000030D01A851A8D4FF0C04160F3C7121A850A6827
S315000030E0009240F6FF72019205E0019A013A0192C0
S315000030F0019A002AE8D09A6A5206F6D402B07047BE
S31500003100F8B54A4A11684FF0C84400236FF3861198
S31500003110102011602063A36123626363C4F804383E
S31500003120227A63F304022272237DFF2243F0010315
S3150000313023752261237D662243F0010323752261F4
S31500003140237D992243F0010323752261237D43F0F9
S315000031500103237501212320FFF7CEFD9F23236161
S315000031602269334BD2B21A702169C9B259702069EB
S31500003170257DC0B245F00105EF2A9870257503D06C
S3150000318000221A809A70F8BD4029F9D11728F7D184
S31500003190052121612669227D264B42F00102352553
S315000031A02275256122691A70227D42F0010222757C
S315000031B0228D042060F3030222852279502760F3D2
S315000031C0030222712761227D1F7842F001022275D7
S315000031D0F2B247F002061E700127276122611A78B3
S315000031E02261227D3A4322752061227D3A4322756F
S315000031F0228861F30202228021612269227D3A43FC
S315000032002275256122691A70237D3B432375238825
S3150000321043F040032380A369DB07FCD40120FFF7BA
S315000032202FFF237D6FF300032375F8BD0070044064
S315000032302001FE1F2401FE1F08B500F003F8002040
S3150000324008BD00BF08B50548FFF740FD044BD3E9AC
S315000032500112186812689047FEE700BF4001FE1F82
S315000032608C39000070B50C4B0C4E0D4C5D687268C5
S315000032702B6A10882178984772682B6A50882178C3
S31500003280984772682B6A9088217898472378B3FA12
S3150000329083F35B09237070BD843900004001FE1F73
S315000032A00000FE1F4275696C7420776974682052AD
S315000032B0656E657361732053796E65726779202830
S315000032C0544D2920536F667477617265205061638F
S315000032D06B6167652076657273696F6E20312E3675
S315000032E02E302B6275696C642E37316565316263E9
S315000032F03638383436000000312E362E30000000C5
S3150000330000000601F8B500BFF8BC08BC9E46704731
S31500003310F8B500BFF8BC08BC9E467047D90B000044
S31500003320C90B0000610C0000E108000095070000D1
S3150000333021080000B50A0000F90600008D0800000B
S31500003340E90900006D070000E907000045070000D5
S31500003350B109000079080000020403040404FFFF19
S3150000336005100000CD0E0000BD0D00002D0D000063
S31500003370590D0000810D0000310E0000A90D00005E
S315000033800601020100010102010202030102020319
S3150000339002030304010202030203030402030304FB
S315000033A003040405010202030203030402030304E7
S315000033B003040405020303040304040503040405CB
S315000033C004050506010202030203030402030304C3
S315000033D003040405020303040304040503040405AB
S315000033E00405050602030304030404050304040597
S315000033F0040505060304040504050506040505067B
S3150000340005060607000103070F1F3F7FA5110000F1
S31500003410CD100000F510000059120000391100000F
S31500003420251100000601030121150000F11400001A
S315000034308D140000A1140000B5140000C91400008A
S31500003440DD14000003010201B51C00005126000036
S31500003450F1200000951D00009D240000B11B000016
S3150000346091160000E91E0000551A00008917000099
S31500003470ED170000151800003D180000F9190000AE
S31500003480651800008D1800009D150000A1150000AC
S31500003490A91B0000A11B0000A51B0000AD1B00001E
S315000034A0B5180000DD1800000519000061190000BC
S315000034B0A51500000D010301000001000000020037
S315000034C0010002000400FFFF000001000200FFFFF0
S315000034D0010002000300FFFF40420F000000000051
S315000034E040420F000000000004000000020000003F
S315000034F0002D310100366E0130040201020A1E0061
S31500003500D0FE010002000310040000001C000000B1
S3150000351013000000030E0010FFFFFFFFFFFFFFFF79
S31500003520FFFFFFFFFFFFFFFF523746533747323794
S3150000353048334130314346435753313434314131B6
S31500003540303000000000000002B06400F00000000F
S3150000355001000810F3E0BFB6057933498B43F24FFB
S315000035601693A05D1E7A1DD8700D7A8242786A5E27
S31500003570C35C0B190400501100000040FFFF000857
S31500003580FFC110081FFF1B057F0028073F002F06FD
S315000035903E8047804C806A0064806B0082005680C3
S315000035A06E00BD80B08083006F005B80700072008B
S315000035B071007300740075008A8086808D80CF80CC
S315000035C076006C006D00B5807B007A007C00A080E0
S315000035D077007800790090809A80978084009D809B
S315000035E0A3807D00D580D880A6808500AD80A98087
S315000035F0DE807E007F00800081000000060702104A
S3150000360000000000FFFF0000002000000001000095
S3150000361000000100FFFF3F000080000000010000E5
S315000036200607011000001040FFFF10404000000098
S31500003630040000000A000410070B0B0F0000FE1F19
S31500003640FFFFFF1F00000020FFFF032000000420F3
S31500003650FFFF072000E00F20FFFF0F2001070010EB
S3150000366008004000005000400803011000520040CE
S31500003670015F00100100000C00000040011F001057
S3150000368001000001000C00400003001001000001D1
S31500003690000D0040010700100100000100E07F401E
S315000036A0000300100100100000C07F40E00103107D
S315000036B0B0010310C00103102000031054000310D2
S315000036C030000F10700403100008071010000310DC
S315000036D0460403104105031040070310000C0310B5
S315000036E0400407104204031044040310D0050310DD
S315000036F0E0050B10F00503100F0707104009031033
S31500003700000E0711400E0310600E03106000071034
S3150000371010040310B0070710800403100200001005
S31500003720030000010030054007030300000F0010EE
S315000037300A00200000000740000F001002000001F0
S3150000374000200740020000100E0000010080074024
S315000037503F1F1F1F0F0F0F0F070707070707000061
S315000037600003001001001000F08F07400003001056
S3150000377004000001002004400003001002000001C4
S3150000378000400840000700100600000100500840F5
S31500003790000700100200001000000540000700109E
S315000037A00200000400200640020000100200000291
S315000037B00040064007070000000700110200000154
S315000037C000E0044001030010C000040000080440AB
S315000037D008030110000D044004000210020000025C
S315000037E000C005402B2B00007F007F003F000F002C
S315000037F07F006F001F000F00040001100C00200066
S3150000380000000440070B0B0B0B0303030303030326
S31500003810FFCFFFC7FFFFFFFFFF30FF30FFFFFFFFB8
S31500003820FFFFFFFFFFFFFF38FFFFFFFFFFFFFF0068
S31500003830FF3F7F00FFFFE301FFFF0307FF000300D9
S3150000384004000210010020000010084003000000E0
S31500003850FFFFFF0F0300000000030010010000023D
S31500003860000000640117001001000010000009406C
S31500003870001F0020010000020000064001030010A6
S315000038800100000100440640010300100100000190
S3150000389000450640010300100100000800500640E4
S315000038A0000300100200000400580640FFFFFFFF5F
S315000038B0FFFFFFFFFFFFFFFFFFFFFFFFFFFFFFFF12
S315000038C0FFFFFFFFFFFFFFFFFFFFFFFFFFFFFFFF02
S315000038D0FFFFFFFFFFFFFFFFFFFFFFFFFFFFFFFFF2
S315000038E0FFFFFFFFFFFFFFFFFFFFFFFFFFFFFFFFE2
S315000038F0FFFFFFFFFFFFFFFFFFFFFFFFFFFFFFFFD2
S31500003900725ABC9EFFFFFFFFFFFFFF3636FFFF8E9A
S31500003910FFFFFFFFFF808D815F4953839FFFFFFFFE
S31500003920FFFFFFFFD0F4D6FFDCFFFFFFFFFFFFE541
S31500003930EEFFFFC34245466B8C8988FFFFFFFFFF02
S31500003940FFFFFFFF4F6D82848685FFFF1CE001406D
S315000039500070044004700440087004400005000034
S31500003960010002000800FFFF010000000000000047
S3150000397000000000030000007C390000000601067C
S315000039800206FFFF000000001C3300002801FE1F96
S3150000399098390000603300000A0C000301000000A3
S315000039A0653200008C390000000000007000000045
S315000039B0B439000000800000000000000080000014
S315000039C0010000000080000002000000004000002E
S315000039D00400000000400000050000000040000058
S315000039E006000000008000000800000000800000C3
S315000039F009000000004000000A00000000800000EE
S31500003A000E000000008000000F0000000004010608
S31500003A100001000000040106010100000004010687
S31500003A200201000000040106030100000004010475
S31500003A30040100000004010405010000000C01045B
S31500003A400601000004040000070100000000010058
S31500003A50080100000000010009010000000001004B
S31500003A600A010000004000000B01000000000000F9
S31500003A700C010000040400000D010000000C01040C
S31500003A800202000000000000030200000000010C1A
S31500003A90040200000000010C050200000000010CF9
S31500003AA0060200000000010C0702000000000109E8
S31500003AB00C020000000001090D02000000000100D8
S31500003AC000030000000401040103000000040104D7
S31500003AD002030000000000000303000000040104CC
S31500003AE0040300000004010405030000000C0104A7
S31500003AF006030000040400000703000000000000A5
S31500003B000803000004040000090300000000000090
S31500003B100A030000000000000B0300000000000084
S31500003B200C030000000401190D0300000004011934
S31500003B300E030000000401190F03000000400000FE
S31500003B400004000000000110010400000000011044
S31500003B50020400000004011703040000000401171A
S31500003B6004040000000C011705040000000C0117F6
S31500003B700604000000000113070400000000010C09
S31500003B80080400000000010C090400000004010400
S31500003B900A040000000401040B040000000C0104E8
S31500003BA00C040000040400000D0400000000010CD9
S31500003BB00E0400000000010C0F040000000C0111AF
S31500003BC000050000000C011101050000000C0111A8
S31500003BD002050000000C011103050000000C011194
S31500003BE004050000000C011105050000000000009E
S31500003BF006050000000000000705000004040000A0
S31500003C000006000004040000010600000404000091
S31500003C10020600000000000003060000000000008D
S31500003C20040600000000000005060000000401195B
S31500003C300606000000040119070600000000000047
S31500003C4008060000000000000D060000000000004D
S31500003C500E060000000401190F060000000C0117F3
S31500003C6000070000000C011701070000000C0117F7
S31500003C7002070000000C011703070000000C0117E3
S31500003C8004070000000C01170507000000040105E9
S31500003C9006070000000401050707000004040000F1
S31500003CA000080000040400000108000000040119D7
S31500003CB002080000000401190308000000040119AD
S31500003CC0040800000404000006080000000C0119A6
S31500003CD0000900000004011901090000000401198F
S31500003CE00509000000040119060900000004011975
S31500003CF00709000000040119080900000004011961
S31500003D00000A000000040119010A0000000401195C
S31500003D10080A000000040119090A0000000401193C
S31500003D200A0A000000000114000B00000000011444
S30D00003D30010B00000000000079
S31500003D3801000000DD060000B906000000000000D2
S31500003D480000000000000000000000000000000065
S31500003D580000000000000000000000000000000055
S31500003D680000000000000000000000000000000045
S31500003D780000000000000000000000000000000035
S31500003D880000000000000000000000000000000025
S31500003D980000000000000000000000000000000015
S30D00003DA800000000000000000D
S31540120050FFFFFFFFFFFFFFFFFFFFFFFFFFFFFFFF58
S70500002F8D3E
